{
  "_format": "hh-sol-artifact-1",
  "contractName": "Escrow",
  "sourceName": "contracts/Escrow.sol",
  "abi": [
    {
      "inputs": [
        {
          "internalType": "address",
          "name": "_receiver",
          "type": "address"
        },
        {
          "internalType": "address",
          "name": "_thirdParty",
          "type": "address"
        },
        {
          "internalType": "uint256",
          "name": "_endBlock",
          "type": "uint256"
        }
      ],
      "stateMutability": "nonpayable",
      "type": "constructor"
    },
    {
      "anonymous": false,
      "inputs": [
        {
          "indexed": false,
          "internalType": "string",
          "name": "message",
          "type": "string"
        }
      ],
      "name": "PasswordSet",
      "type": "event"
    },
    {
      "anonymous": false,
      "inputs": [
        {
          "indexed": false,
          "internalType": "string",
          "name": "message",
          "type": "string"
        }
      ],
      "name": "Timeout",
      "type": "event"
    },
    {
      "anonymous": false,
      "inputs": [
        {
          "indexed": false,
          "internalType": "string",
          "name": "message",
          "type": "string"
        }
      ],
      "name": "Transaction",
      "type": "event"
    },
    {
      "inputs": [],
      "name": "balance",
      "outputs": [
        {
          "internalType": "uint256",
          "name": "",
          "type": "uint256"
        }
      ],
      "stateMutability": "view",
      "type": "function"
    },
    {
      "inputs": [],
      "name": "checkTimeLeft",
      "outputs": [
        {
          "internalType": "uint256",
          "name": "",
          "type": "uint256"
        }
      ],
      "stateMutability": "view",
      "type": "function"
    },
    {
      "inputs": [],
      "name": "endBlock",
      "outputs": [
        {
          "internalType": "uint256",
          "name": "",
          "type": "uint256"
        }
      ],
      "stateMutability": "view",
      "type": "function"
    },
    {
      "inputs": [],
      "name": "holdingBank",
      "outputs": [],
      "stateMutability": "payable",
      "type": "function"
    },
    {
      "inputs": [],
      "name": "owner",
      "outputs": [
        {
          "internalType": "address",
          "name": "",
          "type": "address"
        }
      ],
      "stateMutability": "view",
      "type": "function"
    },
    {
      "inputs": [],
      "name": "receiver",
      "outputs": [
        {
          "internalType": "address",
          "name": "",
          "type": "address"
        }
      ],
      "stateMutability": "view",
      "type": "function"
    },
    {
      "inputs": [],
      "name": "sender",
      "outputs": [
        {
          "internalType": "address",
          "name": "",
          "type": "address"
        }
      ],
      "stateMutability": "view",
      "type": "function"
    },
    {
      "inputs": [
        {
          "internalType": "bytes32",
          "name": "password",
          "type": "bytes32"
        }
      ],
      "name": "setPassword",
      "outputs": [],
      "stateMutability": "nonpayable",
      "type": "function"
    },
    {
      "inputs": [],
      "name": "startBlock",
      "outputs": [
        {
          "internalType": "uint256",
          "name": "",
          "type": "uint256"
        }
      ],
      "stateMutability": "view",
      "type": "function"
    },
    {
      "inputs": [
        {
          "internalType": "string",
          "name": "password",
          "type": "string"
        }
      ],
      "name": "successfulTransaction",
      "outputs": [],
      "stateMutability": "nonpayable",
      "type": "function"
    },
    {
      "inputs": [],
      "name": "timeRanOut",
      "outputs": [],
      "stateMutability": "nonpayable",
      "type": "function"
    }
  ],
  "bytecode": "0x60806040523480156200001157600080fd5b506040516200140b3803806200140b8339818101604052810190620000379190620001fc565b600160008190555042811162000084576040517f08c379a00000000000000000000000000000000000000000000000000000000081526004016200007b90620002b9565b60405180910390fd5b82600260006101000a81548173ffffffffffffffffffffffffffffffffffffffff021916908373ffffffffffffffffffffffffffffffffffffffff16021790555081600360006101000a81548173ffffffffffffffffffffffffffffffffffffffff021916908373ffffffffffffffffffffffffffffffffffffffff16021790555033600560006101000a81548173ffffffffffffffffffffffffffffffffffffffff021916908373ffffffffffffffffffffffffffffffffffffffff16021790555080600881905550505050620002db565b600080fd5b600073ffffffffffffffffffffffffffffffffffffffff82169050919050565b600062000189826200015c565b9050919050565b6200019b816200017c565b8114620001a757600080fd5b50565b600081519050620001bb8162000190565b92915050565b6000819050919050565b620001d681620001c1565b8114620001e257600080fd5b50565b600081519050620001f681620001cb565b92915050565b60008060006060848603121562000218576200021762000157565b5b60006200022886828701620001aa565b93505060206200023b86828701620001aa565b92505060406200024e86828701620001e5565b9150509250925092565b600082825260208201905092915050565b7f456e642074696d65206d75737420626520696e20746865206675747572650000600082015250565b6000620002a1601e8362000258565b9150620002ae8262000269565b602082019050919050565b60006020820190508181036000830152620002d48162000292565b9050919050565b61112080620002eb6000396000f3fe60806040526004361061009c5760003560e01c80639f391544116100645780639f39154414610164578063aebf741a1461018d578063b69ef8a8146101b6578063bc0b5757146101e1578063e0aee83b1461020c578063f7260d3e146102165761009c565b8063083c6323146100a157806348cd4cb1146100cc5780634b3303ff146100f757806367e404ce1461010e5780638da5cb5b14610139575b600080fd5b3480156100ad57600080fd5b506100b6610241565b6040516100c39190610847565b60405180910390f35b3480156100d857600080fd5b506100e1610247565b6040516100ee9190610847565b60405180910390f35b34801561010357600080fd5b5061010c61024d565b005b34801561011a57600080fd5b50610123610419565b60405161013091906108a3565b60405180910390f35b34801561014557600080fd5b5061014e61043f565b60405161015b91906108a3565b60405180910390f35b34801561017057600080fd5b5061018b60048036038101906101869190610908565b610465565b005b34801561019957600080fd5b506101b460048036038101906101af9190610a7b565b610579565b005b3480156101c257600080fd5b506101cb610726565b6040516101d89190610847565b60405180910390f35b3480156101ed57600080fd5b506101f661072c565b6040516102039190610847565b60405180910390f35b610214610753565b005b34801561022257600080fd5b5061022b6107af565b60405161023891906108a3565b60405180910390f35b60085481565b60075481565b600560009054906101000a900473ffffffffffffffffffffffffffffffffffffffff1673ffffffffffffffffffffffffffffffffffffffff163373ffffffffffffffffffffffffffffffffffffffff16146102dd576040517f08c379a00000000000000000000000000000000000000000000000000000000081526004016102d490610b47565b60405180910390fd5b6102e56107d5565b60085442101561032a576040517f08c379a000000000000000000000000000000000000000000000000000000000815260040161032190610bd9565b60405180910390fd5b60006001541161036f576040517f08c379a000000000000000000000000000000000000000000000000000000000815260040161036690610c6b565b60405180910390fd5b600460009054906101000a900473ffffffffffffffffffffffffffffffffffffffff1673ffffffffffffffffffffffffffffffffffffffff166108fc6001549081150290604051600060405180830381858888f193505050501580156103d9573d6000803e3d6000fd5b507f1d0c10f582d4557ae099297e120edadafcbc988d6de0c2027429b3330f29969560405161040790610cd7565b60405180910390a1610417610824565b565b600460009054906101000a900473ffffffffffffffffffffffffffffffffffffffff1681565b600560009054906101000a900473ffffffffffffffffffffffffffffffffffffffff1681565b600360009054906101000a900473ffffffffffffffffffffffffffffffffffffffff1673ffffffffffffffffffffffffffffffffffffffff163373ffffffffffffffffffffffffffffffffffffffff16146104f5576040517f08c379a00000000000000000000000000000000000000000000000000000000081526004016104ec90610d69565b60405180910390fd5b6000801b810361053a576040517f08c379a000000000000000000000000000000000000000000000000000000000815260040161053190610dd5565b60405180910390fd5b806006819055507f04e54adcee07195415a5e40ca57ba319c634c396974479fc82c6cd985b87bf8c60405161056e90610e41565b60405180910390a150565b600360009054906101000a900473ffffffffffffffffffffffffffffffffffffffff1673ffffffffffffffffffffffffffffffffffffffff163373ffffffffffffffffffffffffffffffffffffffff1614610609576040517f08c379a000000000000000000000000000000000000000000000000000000000815260040161060090610d69565b60405180910390fd5b6106116107d5565b600654816040516020016106259190610ed2565b604051602081830303815290604052805190602001201461067b576040517f08c379a000000000000000000000000000000000000000000000000000000000815260040161067290610f35565b60405180910390fd5b600260009054906101000a900473ffffffffffffffffffffffffffffffffffffffff1673ffffffffffffffffffffffffffffffffffffffff166108fc6001549081150290604051600060405180830381858888f193505050501580156106e5573d6000803e3d6000fd5b507f6d421eeca5a9719c114fbb03d722d60bdf774b785c143ed0dc5220a02f63756960405161071390610fc7565b60405180910390a1610723610824565b50565b60015481565b600060085442101561074b57426008546107469190611016565b61074e565b60005b905090565b3460016000828254610765919061104a565b9250508190555033600460006101000a81548173ffffffffffffffffffffffffffffffffffffffff021916908373ffffffffffffffffffffffffffffffffffffffff160217905550565b600260009054906101000a900473ffffffffffffffffffffffffffffffffffffffff1681565b60026000540361081a576040517f08c379a0000000000000000000000000000000000000000000000000000000008152600401610811906110ca565b60405180910390fd5b6002600081905550565b6001600081905550565b6000819050919050565b6108418161082e565b82525050565b600060208201905061085c6000830184610838565b92915050565b600073ffffffffffffffffffffffffffffffffffffffff82169050919050565b600061088d82610862565b9050919050565b61089d81610882565b82525050565b60006020820190506108b86000830184610894565b92915050565b6000604051905090565b600080fd5b600080fd5b6000819050919050565b6108e5816108d2565b81146108f057600080fd5b50565b600081359050610902816108dc565b92915050565b60006020828403121561091e5761091d6108c8565b5b600061092c848285016108f3565b91505092915050565b600080fd5b600080fd5b6000601f19601f8301169050919050565b7f4e487b7100000000000000000000000000000000000000000000000000000000600052604160045260246000fd5b6109888261093f565b810181811067ffffffffffffffff821117156109a7576109a6610950565b5b80604052505050565b60006109ba6108be565b90506109c6828261097f565b919050565b600067ffffffffffffffff8211156109e6576109e5610950565b5b6109ef8261093f565b9050602081019050919050565b82818337600083830152505050565b6000610a1e610a19846109cb565b6109b0565b905082815260208101848484011115610a3a57610a3961093a565b5b610a458482856109fc565b509392505050565b600082601f830112610a6257610a61610935565b5b8135610a72848260208601610a0b565b91505092915050565b600060208284031215610a9157610a906108c8565b5b600082013567ffffffffffffffff811115610aaf57610aae6108cd565b5b610abb84828501610a4d565b91505092915050565b600082825260208201905092915050565b7f4f6e6c7920746865206f776e65722063616e2063616c6c20746869732066756e60008201527f6374696f6e000000000000000000000000000000000000000000000000000000602082015250565b6000610b31602583610ac4565b9150610b3c82610ad5565b604082019050919050565b60006020820190508181036000830152610b6081610b24565b9050919050565b7f4d6f6e6579206973207374696c6c20696e20657363726f7720756e74696c207460008201527f696d652072756e73206f75740000000000000000000000000000000000000000602082015250565b6000610bc3602c83610ac4565b9150610bce82610b67565b604082019050919050565b60006020820190508181036000830152610bf281610bb6565b9050919050565b7f4e6f206d6f6e65792073656e7420746f2074686520636f6e747261637420796560008201527f7400000000000000000000000000000000000000000000000000000000000000602082015250565b6000610c55602183610ac4565b9150610c6082610bf9565b604082019050919050565b60006020820190508181036000830152610c8481610c48565b9050919050565b7f54696d652072616e206f75740000000000000000000000000000000000000000600082015250565b6000610cc1600c83610ac4565b9150610ccc82610c8b565b602082019050919050565b60006020820190508181036000830152610cf081610cb4565b9050919050565b7f4f6e6c792074686520747275737465642074686972642070617274792063616e60008201527f2063616c6c20746869732066756e6374696f6e00000000000000000000000000602082015250565b6000610d53603383610ac4565b9150610d5e82610cf7565b604082019050919050565b60006020820190508181036000830152610d8281610d46565b9050919050565b7f50617373776f72642063616e6e6f7420626520656d7074790000000000000000600082015250565b6000610dbf601883610ac4565b9150610dca82610d89565b602082019050919050565b60006020820190508181036000830152610dee81610db2565b9050919050565b7f50617373776f7264207375636365737366756c6c792073657400000000000000600082015250565b6000610e2b601983610ac4565b9150610e3682610df5565b602082019050919050565b60006020820190508181036000830152610e5a81610e1e565b9050919050565b600081519050919050565b600081905092915050565b60005b83811015610e95578082015181840152602081019050610e7a565b60008484015250505050565b6000610eac82610e61565b610eb68185610e6c565b9350610ec6818560208601610e77565b80840191505092915050565b6000610ede8284610ea1565b915081905092915050565b7f50617373776f726420646f65736e2774206d6174636800000000000000000000600082015250565b6000610f1f601683610ac4565b9150610f2a82610ee9565b602082019050919050565b60006020820190508181036000830152610f4e81610f12565b9050919050565b7f50617373776f7264206d617463682c207375636365737366756c207472616e7360008201527f616374696f6e0000000000000000000000000000000000000000000000000000602082015250565b6000610fb1602683610ac4565b9150610fbc82610f55565b604082019050919050565b60006020820190508181036000830152610fe081610fa4565b9050919050565b7f4e487b7100000000000000000000000000000000000000000000000000000000600052601160045260246000fd5b60006110218261082e565b915061102c8361082e565b925082820390508181111561104457611043610fe7565b5b92915050565b60006110558261082e565b91506110608361082e565b925082820190508082111561107857611077610fe7565b5b92915050565b7f5265656e7472616e637947756172643a207265656e7472616e742063616c6c00600082015250565b60006110b4601f83610ac4565b91506110bf8261107e565b602082019050919050565b600060208201905081810360008301526110e3816110a7565b905091905056fea2646970667358221220a62fe8232419b4915c46cfc1527a0e225c7b31b39c608659a41f3d063b6c512d64736f6c63430008130033",
  "linkReferences": {},
  "deployedLinkReferences": {}
}